:100000000C942A000C943F000C943F000C943F0089
:100010000C943F000C943F000C943F000C943F0064
:100020000C943F000C943F000C943F000C943F0054
:100030000C943F000C943F000C943F000C943F0044
:100040000C943F000C943F000C943F000C943F0034
:100050000C943F0011241FBECFE5D8E0DEBFCDBF1A
:1000600011E0A0E6B0E0EEE8F3E502C005900D92E5
:10007000A43BB107D9F70E9488240C94C5290C949D
:100080000000EF92FF920F931F937B018C0120E001
:1000900030E040E05FE40E941D0488238CF0C8013A
:1000A000B70120E030E040E05FE40E94B9010E9427
:1000B0000B059B01AC01205030404040504806C029
:1000C000C801B7010E940B059B01AC01B901CA012F
:1000D0001F910F91FF90EF900895A0E0B0E0E3E74B
:1000E000F0E00C948E29DC012B01FA019C919230F6
:1000F00008F439C1EB018881823008F433C19430AF
:1001000069F4843009F02FC111969C91119789816F
:10011000981709F428C1A4E9B0E025C1843009F496
:1001200021C18230A9F4923009F01DC19A01AD01BC
:1001300088E0EA010990AE01E90109929E0181502F
:10014000C1F7E201898111969C918923818308C1BD
:10015000923009F407C112962D903C901397EB0151
:100160008A819B811496AD90BD90CD90DC901797BD
:10017000EC80FD800E811F819101281B390BB90194
:1001800037FF04C066277727621B730B6032710547
:100190000CF061C0121613066CF537014801062EEB
:1001A00004C096948794779467940A94D2F721E0D8
:1001B00030E040E050E004C0220F331F441F551FC1
:1001C0006A95D2F721503040404050402E213F21C7
:1001D00040235123211531054105510521F021E02E
:1001E00030E040E050E079018A01E628F72808294C
:1001F00019293CC0232BD1F1260E371E35014601AB
:10020000062E04C096948794779467940A94D2F744
:1002100021E030E040E050E004C0220F331F441FD3
:10022000551F6A95D2F721503040404050402A2156
:100230003B214C215D21211531054105510521F05E
:1002400021E030E040E050E059016A01A628B728DB
:10025000C828D9280BC0821593052CF01C01AA24AC
:10026000BB24650103C0EE24FF24870111969C91F5
:10027000D20111968C91981709F445C0992339F051
:10028000A80197012A193B094C095D0906C0A6017E
:1002900095012E193F09400B510B57FD08C01182E3
:1002A0003382228224833583468357831DC081E0B5
:1002B00081833382228288279927DC01821B930B5A
:1002C000A40BB50B84839583A683B7830DC0220F3F
:1002D000331F441F551F24833583468357838281F0
:1002E000938101979383828324813581468157814D
:1002F000DA01C9010197A109B1098F5F9F4FAF4F83
:10030000BF4328F30BC0918333822282EA0CFB1C8B
:100310000C1D1D1DE482F5820683178383E0808314
:10032000248135814681578157FF1AC0C901AA2708
:1003300097FDA095BA2F81709070A070B0705695FF
:10034000479537952795822B932BA42BB52B848328
:100350009583A683B7838281938101969383828359
:10036000DF0101C0D201CD01CDB7DEB7E2E10C94CF
:10037000AA29A0E2B0E0EFEBF1E00C949A2969839E
:100380007A838B839C832D833E834F835887E9E058
:10039000EE2EF12CEC0EFD1ECE010196B7010E944F
:1003A000FC068E010F5E1F4FCE010596B8010E941C
:1003B000FC068A8991E089278A8BC701B801AE01C2
:1003C000475E5F4F0E946D000E942706A096E6E000
:1003D0000C94B629A0E2B0E0E0EFF1E00C949A2989
:1003E00069837A838B839C832D833E834F835887D5
:1003F000F9E0EF2EF12CEC0EFD1ECE010196B701B7
:100400000E94FC068E010F5E1F4FCE010596B801BB
:100410000E94FC06C701B801AE01475E5F4F0E9413
:100420006D000E942706A096E6E00C94B629A0E293
:10043000B0E0EDE1F2E00C948E2969837A838B833E
:100440009C832D833E834F835887CE010196BE0146
:10045000675F7F4F0E94FC06CE010596BE016F5E6E
:100460007F4F0E94FC069985923088F089898230FE
:10047000C8F0943019F4823051F404C0843029F467
:10048000923081F484E990E0C6C0923049F420E0D3
:100490009A858A89981321E02A87CE010996BBC0E4
:1004A000823049F420E09A858A89981321E02A8BCA
:1004B000CE014196B0C02D843E844F8458886D880B
:1004C0007E888F88988CEE24FF248701AA24BB2481
:1004D000650140E050E060E070E0E0E0F0E0C10184
:1004E00081709070892BE9F0E60CF71C081D191D2E
:1004F0009A01AB012A0D3B1D4C1D5D1D80E090E073
:10050000A0E0B0E0E614F7040805190520F481E046
:1005100090E0A0E0B0E0BA01A901480F591F6A1F9E
:100520007B1FAA0CBB1CCC1CDD1C97FE08C081E005
:1005300090E0A0E0B0E0A82AB92ACA2ADB2A3196C6
:10054000E032F10549F0660C771C881C991C569422
:10055000479437942794C3CFFA85EA892B893C893D
:100560008B859C85280F391F2E5F3F4F17C0CA010E
:1005700081709070892B61F016950795F794E79438
:1005800080E090E0A0E0B0E8E82AF92A0A2B1B2BD3
:1005900076956795579547952F5F3F4F77FDE7CF46
:1005A0000CC0440F551F661F771F17FD4160EE0CEE
:1005B000FF1C001F111F21503040403090E05907B0
:1005C00090E0690790E4790760F32B8F3C8FDB01A3
:1005D000CA018F779070A070B07080349105A1052A
:1005E000B10561F447FD0AC0E114F10401051105EC
:1005F00029F0405C5F4F6F4F7F4F40781A8EFE1797
:1006000011F081E08A8F4D8F5E8F6F8F78A383E02A
:10061000898FCE0149960E942706A096E2E10C94AC
:10062000AA29A8E1B0E0E7E1F3E00C9496296983F8
:100630007A838B839C832D833E834F835887B9E0D5
:10064000EB2EF12CEC0EFD1ECE010196B7010E949F
:10065000FC068E010F5E1F4FCE010596B8010E9469
:10066000FC062985223008F47EC03989323010F426
:10067000B8017CC08A859A8989278A87243011F03D
:10068000223031F4231709F06EC064E970E06EC0C7
:10069000343039F41D861E861F86188A1C861B86F8
:1006A00004C0323021F484E08987B7015FC02B8514
:1006B0003C858B899C89281B390B3C872B87ED84D3
:1006C000FE840F851889AD88BE88CF88D88CEA143F
:1006D000FB040C051D0540F4EE0CFF1C001F111F50
:1006E000215030403C872B8720E030E040E050E054
:1006F00080E090E0A0E0B0E460E070E0EA14FB0489
:100700000C051D0540F0282B392B4A2B5B2BEA18D2
:10071000FB080C091D09B695A79597958795EE0CD2
:10072000FF1C001F111F6F5F7F4F6F31710531F785
:10073000DA01C9018F779070A070B0708034910594
:10074000A105B10561F427FD0AC0E114F10401051A
:10075000110529F0205C3F4F4F4F5F4F20782D87C8
:100760003E874F87588BBE01675F7F4FCB010E944A
:1007700027066896EAE00C94B229A8E1B0E0E3EC21
:10078000F3E00C949A2969837A838B839C832D836D
:100790003E834F83588789E0E82EF12CEC0EFD1E36
:1007A000CE010196B7010E94FC068E010F5E1F4F1D
:1007B000CE010596B8010E94FC068985823040F082
:1007C0008989823028F0C701B8010E94740701C0EE
:1007D00081E06896E6E00C94B629A8E1B0E0E3EF8A
:1007E000F3E00C949A2969837A838B839C832D830D
:1007F0003E834F83588789E0E82EF12CEC0EFD1ED6
:10080000CE010196B7010E94FC068E010F5E1F4FBC
:10081000CE010596B8010E94FC068985823040F021
:100820008989823028F0C701B8010E94740701C08D
:100830008FEF6896E6E00C94B629A8E1B0E0E3E219
:10084000F4E00C949A2969837A838B839C832D83AB
:100850003E834F83588789E0E82EF12CEC0EFD1E75
:10086000CE010196B7010E94FC068E010F5E1F4F5C
:10087000CE010596B8010E94FC068985823040F0C1
:100880008989823028F0C701B8010E94740701C02D
:100890008FEF6896E6E00C94B629A8E1B0E0E3E5B6
:1008A000F4E00C949A2969837A838B839C832D834B
:1008B0003E834F83588789E0E82EF12CEC0EFD1E15
:1008C000CE010196B7010E94FC068E010F5E1F4FFC
:1008D000CE010596B8010E94FC068985823040F061
:1008E0008989823028F0C701B8010E94740701C0CD
:1008F00081E06896E6E00C94B629A8E1B0E0E3E870
:10090000F4E00C949A2969837A838B839C832D83EA
:100910003E834F83588789E0E82EF12CEC0EFD1EB4
:10092000CE010196B7010E94FC068E010F5E1F4F9B
:10093000CE010596B8010E94FC068985823040F000
:100940008989823028F0C701B8010E94740701C06C
:1009500081E06896E6E00C94B629A8E0B0E0E3EB0D
:10096000F4E00C9497299B01AC0183E08983DA01C0
:10097000C9018827B7FD83959927AA27BB27B82ED9
:10098000211531054105510519F482E089833AC0EA
:100990008823A9F0203080E0380780E0480780E80D
:1009A000580729F460E070E080E09FEC30C0EE244E
:1009B000FF248701E21AF30A040B150B02C0790128
:1009C0008A018EE1C82ED12CDC82CB82ED82FE82A0
:1009D0000F831887C801B7010E94D8050197181620
:1009E000190684F4082E04C0EE0CFF1C001F111F12
:1009F0000A94D2F7ED82FE820F831887C81AD90AAB
:100A0000DC82CB82BA82CE0101960E94270628960C
:100A1000E9E00C94B329ACE0B0E0E1E1F5E00C943E
:100A20009E2969837A838B839C83CE010196BE01C4
:100A30006B5F7F4F0E94FC068D81823061F18230B6
:100A400050F1843021F48E81882351F12EC02F8102
:100A5000388537FD20C06E812F3131051CF06623AB
:100A6000F9F023C08EE190E0821B930B29853A8533
:100A70004B855C8504C056954795379527958A9593
:100A8000D2F76623B1F050954095309521953F4FB0
:100A90004F4F5F4F0EC020E030E040E050E009C013
:100AA0002FEF3FEF4FEF5FE704C020E030E040E082
:100AB00050E8B901CA012C96E2E00C94BA29A8E0EA
:100AC000B0E0E5E6F5E00C9496297B018C01611518
:100AD00071058105910519F482E0898360C083E086
:100AE00089838EE1C82ED12CDC82CB82ED82FE82FE
:100AF0000F831887C801B7010E94D805FC01319700
:100B0000F7FF3BC0222733272E1B3F0B57016801FD
:100B1000022E04C0D694C794B794A7940A94D2F72F
:100B200040E050E060E070E081E090E0A0E0B0E004
:100B300004C0880F991FAA1FBB1F2A95D2F70197DF
:100B4000A109B1098E219F21A023B1230097A105FE
:100B5000B10521F041E050E060E070E04A295B29F6
:100B60006C297D294D835E836F8378878EE190E0C9
:100B70008E1B9F0B9C838B8312C0309781F00E2EAF
:100B800004C0EE0CFF1C001F111F0A94D2F7ED8267
:100B9000FE820F831887CE1ADF0ADC82CB821A828C
:100BA000CE0101960E9427062896EAE00C94B2290D
:100BB000EF92FF920F931F937B018C0180E0E81668
:100BC00080E0F80681E0080780E0180788F48FEFDE
:100BD000E816F1040105110531F028F088E090E0F5
:100BE000A0E0B0E017C080E090E0A0E0B0E012C06C
:100BF00080E0E81680E0F80680E0080781E018074A
:100C000028F088E190E0A0E0B0E004C080E190E04E
:100C1000A0E0B0E020E230E040E050E0281B390BDB
:100C20004A0B5B0B04C016950795F794E7948A95D9
:100C3000D2F7F701E456FF4F8081281B31094109A3
:100C40005109C9011F910F91FF90EF900895DF9214
:100C5000EF92FF920F931F93FC01E480F5800681D1
:100C60001781D1808081823048F480E090E0A0E15B
:100C7000B0E0E82AF92A0A2B1B2BA5C0843009F41E
:100C80009FC0823021F4EE24FF24870105C0E114C7
:100C9000F1040105110519F4E0E0F0E096C062816D
:100CA00073819FEF623879070CF05BC022E83FEF59
:100CB000261B370B2A3131052CF020E030E040E0D4
:100CC00050E02AC0B801A701022E04C076956795AE
:100CD000579547950A94D2F781E090E0A0E0B0E004
:100CE00004C0880F991FAA1FBB1F2A95D2F701972E
:100CF000A109B1098E219F21A023B1230097A1054D
:100D0000B10521F081E090E0A0E0B0E09A01AB01F4
:100D1000282B392B4A2B5B2BDA01C9018F77907076
:100D2000A070B07080349105A105B10539F427FF9A
:100D300009C0205C3F4F4F4F5F4F04C0215C3F4FC5
:100D40004F4F5F4FE0E0F0E02030A0E03A07A0E036
:100D50004A07A0E45A0710F0E1E0F0E079018A01C7
:100D600027C06038710564F5FB01E158FF4FD801D9
:100D7000C7018F779070A070B07080349105A10585
:100D8000B10539F4E7FE0DC080E490E0A0E0B0E0EA
:100D900004C08FE390E0A0E0B0E0E80EF91E0A1F67
:100DA0001B1F17FF05C016950795F794E79431961A
:100DB00087E016950795F794E7948A95D1F705C0D3
:100DC000EE24FF248701EFEFF0E06E2F6795662792
:100DD0006795902F9F77D794DD24D7948E2F869593
:100DE000492F462B582F5D29B701CA011F910F913A
:100DF000FF90EF90DF900895FC01DB01408151816D
:100E00002281622F6F7770E0221F2227221F938199
:100E1000892F880F822B282F30E0991F9927991F3F
:100E200011969C93119721153105A9F5411551058E
:100E30006105710511F482E037C082E89FEF1396D7
:100E40009C938E9312979A01AB0167E0220F331F98
:100E5000441F551F6A95D1F783E08C930DC0220F74
:100E6000331F441F551F12968D919C911397019724
:100E700013969C938E931297203080E0380780E081
:100E8000480780E4580758F314962D933D934D93EB
:100E90005C93179708952F3F310579F4411551055B
:100EA0006105710519F484E08C93089564FF03C013
:100EB00081E08C9312C01C9210C02F5730401396C3
:100EC0003C932E93129783E08C9387E0440F551F39
:100ED000661F771F8A95D1F7706414964D935D93C2
:100EE0006D937C93179708951F93DC01FB019C91F0
:100EF000923008F447C08081823008F443C09430B7
:100F000051F411961C91843099F58181682F70E01D
:100F1000611B71093FC0843021F0923031F482307E
:100F2000B9F18181882389F12DC011961C91119707
:100F30008230F1F081811817D9F412962D913C91ED
:100F40001397828193818217930794F028173907AA
:100F5000BCF014968D919D910D90BC91A02D248193
:100F6000358146815781281739074A075B0718F4EE
:100F7000112341F00AC082179307A407B50740F474
:100F8000112319F061E070E005C06FEF7FEF02C040
:100F900060E070E0CB011F910895DF93CF93CDB750
:100FA000DEB7E0970FB6F894DEBF0FBECDBF84E08A
:100FB00062E040E00E94CC1F80E090E0A0E8BFE348
:100FC0008DA79EA7AFA7B8AB6DA57EA58FA598A945
:100FD0002BEA3AEA4AE250E40E941702DC01CB0114
:100FE00089A79AA7ABA7BCA769A57AA58BA59CA53D
:100FF00020E030E040E85FE30E944D0488231CF4C9
:1010000081E088A791C069A57AA58BA59CA520E061
:1010100030E04FE753E40E94ED0318160CF07BC05C
:101020006DA57EA58FA598A920E030E04AE754E49D
:101030000E941103DC01CB018CA39DA3AEA3BFA32F
:101040006CA17DA18EA19FA120E030E04AEF54E485
:101050000E941702DC01CB0188A399A3AAA3BBA31A
:1010600068A179A18AA19BA120E030E040E85FE37C
:101070000E944D0488232CF481E090E09F8F8E8F96
:101080003FC068A179A18AA19BA120E03FEF4FE773
:1010900057E40E94ED0318164CF56CA17DA18EA1BA
:1010A0009FA120E030E040E251E40E941702DC0101
:1010B000CB01BC01CD010E944100DC01CB019F8F1F
:1010C0008E8F0FC088EC90E09D8F8C8F8C8D9D8DC6
:1010D0000197F1F79D8F8C8F8E8D9F8D01979F8F3C
:1010E0008E8F8E8D9F8D009769F724C068A179A19E
:1010F0008AA19BA10E944100DC01CB019F8F8E8FB2
:101100008E8D9F8D9B8F8A8F8A8D9B8D0197F1F796
:101110009B8F8A8F0FC069A57AA58BA59CA50E947D
:101120004100DC01CB0188A788A5898F898D8A952C
:10113000F1F7898F84E062E041E00E94CC1F80E0FB
:1011400090E0A0E8BFE38D8B9E8BAF8BB88F6D894D
:101150007E898F89988D2BEA3AEA4AE250E40E9410
:101160001702DC01CB01898B9A8BAB8BBC8B698915
:101170007A898B899C8920E030E040E85FE30E9417
:101180004D0488231CF481E0888B91C069897A8999
:101190008B899C8920E030E04FE753E40E94ED0307
:1011A00018160CF07BC06D897E898F89988D20E0A0
:1011B00030E04AE754E40E941103DC01CB018C8744
:1011C0009D87AE87BF876C857D858E859F8520E056
:1011D00030E04AEF54E40E941702DC01CB0188871B
:1011E0009987AA87BB87688579858A859B8520E052
:1011F00030E040E85FE30E944D0488232CF481E056
:1012000090E09F838E833FC0688579858A859B8522
:1012100020E03FEF4FE757E40E94ED0318164CF52E
:101220006C857D858E859F8520E030E040E251E42D
:101230000E941702DC01CB01BC01CD010E944100DC
:10124000DC01CB019F838E830FC088EC90E09D83EF
:101250008C838C819D810197F1F79D838C838E8196
:101260009F8101979F838E838E819F81009769F76D
:1012700024C0688579858A859B850E944100DC01B0
:10128000CB019F838E838E819F819B838A838A81FA
:101290009B810197F1F79B838A830FC069897A89C3
:1012A0008B899C890E944100DC01CB01888B888955
:1012B000898389818A95F1F7898384E062E040E03F
:1012C0000E94CC1FE0960FB6F894DEBF0FBECDBFD4
:1012D000CF91DF910895DF93CF9300D000D0CDB7A9
:1012E000DEB789836A838981282F30E03C832B8392
:1012F0008B819C818130910531F02B813C812230A2
:101300003105B9F16BC08A81882F90E088709070A8
:10131000959587959595879595958795982F84E0D0
:1013200067E0492F0E94CC1F8A81882F90E084704B
:1013300090709595879595958795982F84E066E0B0
:10134000492F0E94CC1F8A81882F90E08270907074
:1013500095958795982F84E065E0492F0E94CC1FD2
:101360008A81982F917084E064E0492F0E94CC1FFD
:1013700035C08A81882F90E0887090709595879508
:101380009595879595958795982F84E063E0492FEB
:101390000E94CC1F8A81882F90E084709070959570
:1013A000879595958795982F84E062E0492F0E9454
:1013B000CC1F8A81882F90E08270907095958795D8
:1013C000982F84E061E0492F0E94CC1F8A81982FDA
:1013D000917084E060E0492F0E94CC1F0F900F9025
:1013E0000F900F90CF91DF910895DF93CF9300D0AE
:1013F00000D0CDB7DEB789836A838981282F30E09A
:101400003C832B838B819C818130910539F02B812A
:101410003C812230310509F447C08BC08A81982F66
:10142000991F9927991F84E067E0492F0E94CC1FDC
:101430008A81882F90E080749070082E892F000C8C
:10144000881F990B000C881F991F982F84E066E075
:10145000492F0E94CC1F8A81882F90E08072907063
:101460009595879595958795959587959595879564
:1014700095958795982F84E065E0492F0E94CC1FB1
:101480008A81882F90E080719070959587959595C9
:1014900087959595879595958795982F84E064E035
:1014A000492F0E94CC1F45C08A81982F991F9927E8
:1014B000991F84E063E0492F0E94CC1F8A81882F06
:1014C00090E080749070082E892F000C881F990B73
:1014D000000C881F991F982F84E062E0492F0E941A
:1014E000CC1F8A81882F90E08072907095958795A7
:1014F00095958795959587959595879595958795D4
:10150000982F84E061E0492F0E94CC1F8A81882FA8
:1015100090E08071907095958795959587959595B4
:10152000879595958795982F84E060E0492F0E94D4
:10153000CC1F0F900F900F900F90CF91DF910895D7
:10154000DF93CF93CDB7DEB784E060E041E00E9447
:10155000221D84E061E041E00E94221D84E062E0FF
:1015600041E00E94221DCF91DF910895DF93CF9338
:10157000CDB7DEB784E067E041E00E94221D84E041
:1015800066E041E00E94221D84E065E041E00E94A7
:10159000221D84E064E041E00E94221DCF91DF9192
:1015A0000895DF93CF930F92CDB7DEB7898384E0A0
:1015B00060E040E00E94CC1F84E061E040E00E94D7
:1015C000CC1F81E069810E94F5090E94CD0781E06E
:1015D00069810E946B090E94CD070F90CF91DF9126
:1015E0000895DF93CF930F92CDB7DEB7898384E060
:1015F00060E041E00E94CC1F84E061E040E00E9496
:10160000CC1F81E069810E94F5090E94CD0781E02D
:1016100069810E946B090E94CD070F90CF91DF91E5
:1016200008950F931F93DF93CF93CDB7DEB7C456C2
:10163000D0400FB6F894DEBF0FBECDBF0E94A00A07
:101640000E94B60AFE01EF59FF4F80E090E0A0E251
:10165000B2E480839183A283B3838E01035A1F4F28
:10166000FE01EF59FF4F608171818281938120E0FB
:1016700030E04AEF54E40E941702DC01CB01F8018C
:1016800080839183A283B383FE01E35AFF4F60817D
:1016900071818281938120E030E040E85FE30E9425
:1016A0004D04882344F4FE01E55AFF4F81E090E0A9
:1016B0009183808364C0FE01E35AFF4F6081718192
:1016C0008281938120E03FEF4FE757E40E94ED03D2
:1016D00018160CF043C0FE01EF59FF4F6081718175
:1016E0008281938120E030E040E251E40E941702C1
:1016F000DC01CB018E01055A1F4FBC01CD010E94B8
:101700004100DC01CB01F801918380831FC0FE0101
:10171000E75AFF4F88EC90E091838083FE01E75AFF
:10172000FF4F808191810197F1F7FE01E75AFF4F4A
:1017300091838083DE01A55ABF4FFE01E55AFF4F1A
:1017400080819181019711969C938E93FE01E55AB9
:10175000FF4F808191810097D1F627C08E01055AF5
:101760001F4FFE01E35AFF4F608171818281938197
:101770000E944100DC01CB01F80191838083DE01EE
:10178000A95ABF4FFE01E55AFF4F808191818D9389
:101790009C93FE01E95AFF4F808191810197F1F7F7
:1017A000FE01E95AFF4F9183808382E00E94D10AB3
:1017B000FE01ED5AFF4F80E090E0A8E4B2E48083A0
:1017C0009183A283B3838E01015B1F4FFE01ED5A0B
:1017D000FF4F60817181828193812BEA3AEA4AE26C
:1017E00050E40E941702DC01CB01F8018083918351
:1017F000A283B383FE01E15BFF4F6081718182812F
:10180000938120E030E040E85FE30E944D048823AC
:1018100034F4FE01E25BFF4F81E08083E0C0FE0113
:10182000E15BFF4F608171818281938120E030E034
:101830004FE753E40E94ED0318160CF0C0C0FE0100
:10184000ED5AFF4F608171818281938120E030E009
:101850004AE754E40E941103DC01CB01FE01E65B80
:10186000FF4F80839183A283B3838E010A5B1F4F56
:10187000FE01E65BFF4F608171818281938120E0F0
:1018800030E04AEF54E40E941702DC01CB01F8017A
:1018900080839183A283B383FE01EA5BFF4F608163
:1018A00071818281938120E030E040E85FE30E9413
:1018B0004D04882344F4FE01EC5BFF4F81E090E08F
:1018C0009183808364C0FE01EA5BFF4F6081718178
:1018D0008281938120E03FEF4FE757E40E94ED03C0
:1018E00018160CF043C0FE01E65BFF4F608171816A
:1018F0008281938120E030E040E251E40E941702AF
:10190000DC01CB018E010C5B1F4FBC01CD010E949D
:101910004100DC01CB01F801918380831FC0FE01EF
:10192000EE5BFF4F88EC90E091838083FE01EE5BDD
:10193000FF4F808191810197F1F7FE01EE5BFF4F30
:1019400091838083DE01AC5BBF4FFE01EC5BFF4FF8
:1019500080819181019711969C938E93FE01EC5B9F
:10196000FF4F808191810097D1F642C08E010C5BC0
:101970001F4FFE01EA5BFF4F60817181828193817D
:101980000E944100DC01CB01F80191838083DE01DC
:10199000A05CBF4FFE01EC5BFF4F808191811196EF
:1019A0009C938E93FE01E05CFF4F808191810197B3
:1019B000F1F7FE01E05CFF4F9183808319C08E0137
:1019C000025B1F4FFE01E15BFF4F608171818281ED
:1019D00093810E944100DC01CB01F8018083FE016C
:1019E000E25BFF4F80818FAF8FAD8A95F1F78FAFAC
:1019F00088E20E94D10A80E090E0A8E4B2E48BAFD4
:101A00009CAFADAFBEAF6BAD7CAD8DAD9EAD2BEAE7
:101A10003AEA4AE250E40E941702DC01CB018FABA4
:101A200098AFA9AFBAAF6FA978AD89AD9AAD20E0F4
:101A300030E040E85FE30E944D0488231CF481E01D
:101A40008EAB91C06FA978AD89AD9AAD20E030E042
:101A50004FE753E40E94ED0318160CF07BC06BAD0A
:101A60007CAD8DAD9EAD20E030E04AE754E40E94AD
:101A70001103DC01CB018AAB9BABACABBDAB6AA95C
:101A80007BA98CA99DA920E030E04AEF54E40E9494
:101A90001702DC01CB018EA79FA7A8ABB9AB6EA53F
:101AA0007FA588A999A920E030E040E85FE30E9483
:101AB0004D0488232CF481E090E09DA78CA73FC0C3
:101AC0006EA57FA588A999A920E03FEF4FE757E4CD
:101AD0000E94ED0318164CF56AA97BA98CA99DA953
:101AE00020E030E040E251E40E941702DC01CB012B
:101AF000BC01CD010E944100DC01CB019DA78CA758
:101B00000FC088EC90E09BA78AA78AA59BA50197A8
:101B1000F1F79BA78AA78CA59DA501979DA78CA7E8
:101B20008CA59DA5009769F724C06EA57FA588A9FF
:101B300099A90E944100DC01CB019DA78CA78CA52F
:101B40009DA599A788A788A599A50197F1F799A7B9
:101B500088A70FC06FA978AD89AD9AAD0E944100EA
:101B6000DC01CB018EAB8EA98FA38FA18A95F1F7F3
:101B70008FA38CE00E94D10A80E090E0A8E4B2E458
:101B80008BA39CA3ADA3BEA36BA17CA18DA19EA1A1
:101B90002BEA3AEA4AE250E40E941702DC01CB0148
:101BA0008F8F98A3A9A3BAA36F8D78A189A19AA1B9
:101BB00020E030E040E85FE30E944D0488231CF4FD
:101BC00081E08E8F91C06F8D78A189A19AA120E0CC
:101BD00030E04FE753E40E94ED0318160CF07BC091
:101BE0006BA17CA18DA19EA120E030E04AE754E4E6
:101BF0000E941103DC01CB018A8F9B8FAC8FBD8FBC
:101C00006A8D7B8D8C8D9D8D20E030E04AEF54E411
:101C10000E941702DC01CB018E8B9F8BA88FB98F9E
:101C20006E897F89888D998D20E030E040E85FE300
:101C30000E944D0488232CF481E090E09D8B8C8BD6
:101C40003FC06E897F89888D998D20E03FEF4FE7F7
:101C500057E40E94ED0318164CF56A8D7B8D8C8D30
:101C60009D8D20E030E040E251E40E941702DC014B
:101C7000CB01BC01CD010E944100DC01CB019D8B59
:101C80008C8B0FC088EC90E09B8B8A8B8A899B8918
:101C90000197F1F79B8B8A8B8C899D8901979D8B8E
:101CA0008C8B8C899D89009769F724C06E897F8908
:101CB000888D998D0E944100DC01CB019D8B8C8B1E
:101CC0008C899D89998B888B888999890197F1F7EF
:101CD000998B888B0FC06F8D78A189A19AA10E94E2
:101CE0004100DC01CB018E8F8E8D8F878F858A9589
:101CF000F1F78F8781E00E94D10A80E090E0A0E4B4
:101D0000B0E48B879C87AD87BE876B857C858D858E
:101D10009E8520E030E04AEF54E40E941702DC0187
:101D2000CB018F839887A987BA876F81788589854A
:101D30009A8520E030E040E85FE30E944D0488236C
:101D40002CF481E090E09E838D833FC06F81788585
:101D500089859A8520E03FEF4FE757E40E94ED0325
:101D600018164CF56B857C858D859E8520E030E0CE
:101D700040E251E40E941702DC01CB01BC01CD011D
:101D80000E944100DC01CB019E838D830FC088EC53
:101D900090E09C838B838B819C810197F1F79C83DE
:101DA0008B838D819E8101979E838D838D819E8102
:101DB000009769F714C06F81788589859A850E949C
:101DC0004100DC01CB019E838D838D819E819A83AE
:101DD000898389819A810197F1F79A838983CC5904
:101DE000DF4F0FB6F894DEBF0FBECDBFCF91DF91AE
:101DF0001F910F910895DF93CF9300D00F92CDB72D
:101E0000DEB79B838A8319820EC08981282F30E038
:101E10008A819B81FC01E20FF31F80810E94F10AFD
:101E200089818F5F89838981282F30E08A819B8116
:101E3000FC01E20FF31F8081882339F70F900F9088
:101E40000F90CF91DF910895DF93CF93CDB7DEB799
:101E5000E2970FB6F894DEBF0FBECDBF89AB6AAB79
:101E60008AA9882309F0C3C089A980580E94D10A91
:101E700080E090E0A8E4B2E48DA79EA7AFA7B8AB3E
:101E80006DA57EA58FA598A92BEA3AEA4AE250E40F
:101E90000E941702DC01CB0189A79AA7ABA7BCA7B8
:101EA00069A57AA58BA59CA520E030E040E85FE31A
:101EB0000E944D0488231CF481E088A791C069A585
:101EC0007AA58BA59CA520E030E04FE753E40E9463
:101ED000ED0318160CF07BC06DA57EA58FA598A903
:101EE00020E030E04AE754E40E941103DC01CB011A
:101EF0008CA39DA3AEA3BFA36CA17DA18EA19FA126
:101F000020E030E04AEF54E40E941702DC01CB01EC
:101F100088A399A3AAA3BBA368A179A18AA19BA125
:101F200020E030E040E85FE30E944D0488232CF479
:101F300081E090E09F8F8E8F3FC068A179A18AA138
:101F40009BA120E03FEF4FE757E40E94ED031816F6
:101F50004CF56CA17DA18EA19FA120E030E040E274
:101F600051E40E941702DC01CB01BC01CD010E94AB
:101F70004100DC01CB019F8F8E8F0FC088EC90E079
:101F80009D8F8C8F8C8D9D8D0197F1F79D8F8C8F00
:101F90008E8D9F8D01979F8F8E8F8E8D9F8D009739
:101FA00069F7EBC068A179A18AA19BA10E944100B9
:101FB000DC01CB019F8F8E8F8E8D9F8D9B8F8A8FA3
:101FC0008A8D9B8D0197F1F79B8F8A8FD6C069A56B
:101FD0007AA58BA59CA50E944100DC01CB0188A7B6
:101FE00088A5898F898D8A95F1F7898FC6C08AA9BE
:101FF000813009F0C2C089A980540E94D10A80E0D2
:1020000090E0A8E4B2E48D8B9E8BAF8BB88F6D8986
:102010007E898F89988D2BEA3AEA4AE250E40E9441
:102020001702DC01CB01898B9A8BAB8BBC8B698946
:102030007A898B899C8920E030E040E85FE30E9448
:102040004D0488231CF481E0888B91C069897A89CA
:102050008B899C8920E030E04FE753E40E94ED0338
:1020600018160CF07BC06D897E898F89988D20E0D1
:1020700030E04AE754E40E941103DC01CB018C8775
:102080009D87AE87BF876C857D858E859F8520E087
:1020900030E04AEF54E40E941702DC01CB0188874C
:1020A0009987AA87BB87688579858A859B8520E083
:1020B00030E040E85FE30E944D0488232CF481E087
:1020C00090E09F838E833FC0688579858A859B8554
:1020D00020E03FEF4FE757E40E94ED0318164CF560
:1020E0006C857D858E859F8520E030E040E251E45F
:1020F0000E941702DC01CB01BC01CD010E9441000E
:10210000DC01CB019F838E830FC088EC90E09D8320
:102110008C838C819D810197F1F79D838C838E81C7
:102120009F8101979F838E838E819F81009769F79E
:1021300024C0688579858A859B850E944100DC01E1
:10214000CB019F838E838E819F819B838A838A812B
:102150009B810197F1F79B838A830FC069897A89F4
:102160008B899C890E944100DC01CB01888B888986
:10217000898389818A95F1F78983E2960FB6F8946D
:10218000DEBF0FBECDBFCF91DF910895DF93CF9318
:10219000CDB7DEB768970FB6F894DEBF0FBECDBFE0
:1021A0008DE00E94D10A80E090E0A8E4B2E48D8B3B
:1021B0009E8BAF8BB88F6D897E898F89988D2BEA26
:1021C0003AEA4AE250E40E941702DC01CB01898B13
:1021D0009A8BAB8BBC8B69897A898B899C8920E02F
:1021E00030E040E85FE30E944D0488231CF481E066
:1021F000888B91C069897A898B899C8920E030E03D
:102200004FE753E40E94ED0318160CF07BC06D8974
:102210007E898F89988D20E030E04AE754E40E945F
:102220001103DC01CB018C879D87AE87BF876C854E
:102230007D858E859F8520E030E04AEF54E40E9442
:102240001702DC01CB0188879987AA87BB8768853D
:1022500079858A859B8520E030E040E85FE30E9435
:102260004D0488232CF481E090E09F838E833FC04F
:10227000688579858A859B8520E03FEF4FE757E4A5
:102280000E94ED0318164CF56C857D858E859F8523
:1022900020E030E040E251E40E941702DC01CB0173
:1022A000BC01CD010E944100DC01CB019F838E83E4
:1022B0000FC088EC90E09D838C838C819D81019779
:1022C000F1F79D838C838E819F8101979F838E83FD
:1022D0008E819F81009769F724C0688579858A85FA
:1022E0009B850E944100DC01CB019F838E838E8100
:1022F0009F819B838A838A819B810197F1F79B83CE
:102300008A830FC069897A898B899C890E944100E0
:10231000DC01CB01888B8889898389818A95F1F7D3
:10232000898368960FB6F894DEBF0FBECDBFCF91FC
:10233000DF910895DF93CF93CDB7DEB768970FB6DF
:10234000F894DEBF0FBECDBF8CE00E94D10A80E0C2
:1023500090E0A8E4B2E48D8B9E8BAF8BB88F6D8933
:102360007E898F89988D2BEA3AEA4AE250E40E94EE
:102370001702DC01CB01898B9A8BAB8BBC8B6989F3
:102380007A898B899C8920E030E040E85FE30E94F5
:102390004D0488231CF481E0888B91C069897A8977
:1023A0008B899C8920E030E04FE753E40E94ED03E5
:1023B00018160CF07BC06D897E898F89988D20E07E
:1023C00030E04AE754E40E941103DC01CB018C8722
:1023D0009D87AE87BF876C857D858E859F8520E034
:1023E00030E04AEF54E40E941702DC01CB018887F9
:1023F0009987AA87BB87688579858A859B8520E030
:1024000030E040E85FE30E944D0488232CF481E033
:1024100090E09F838E833FC0688579858A859B8500
:1024200020E03FEF4FE757E40E94ED0318164CF50C
:102430006C857D858E859F8520E030E040E251E40B
:102440000E941702DC01CB01BC01CD010E944100BA
:10245000DC01CB019F838E830FC088EC90E09D83CD
:102460008C838C819D810197F1F79D838C838E8174
:102470009F8101979F838E838E819F81009769F74B
:1024800024C0688579858A859B850E944100DC018E
:10249000CB019F838E838E819F819B838A838A81D8
:1024A0009B810197F1F79B838A830FC069897A89A1
:1024B0008B899C890E944100DC01CB01888B888933
:1024C000898389818A95F1F7898368960FB6F89494
:1024D000DEBF0FBECDBFCF91DF910895DF93CF93C5
:1024E000CDB7DEB768970FB6F894DEBF0FBECDBF8D
:1024F0008EE00E94D10A80E090E0A8E4B2E48D8BE7
:102500009E8BAF8BB88F6D897E898F89988D2BEAD2
:102510003AEA4AE250E40E941702DC01CB01898BBF
:102520009A8BAB8BBC8B69897A898B899C8920E0DB
:1025300030E040E85FE30E944D0488231CF481E012
:10254000888B91C069897A898B899C8920E030E0E9
:102550004FE753E40E94ED0318160CF07BC06D8921
:102560007E898F89988D20E030E04AE754E40E940C
:102570001103DC01CB018C879D87AE87BF876C85FB
:102580007D858E859F8520E030E04AEF54E40E94EF
:102590001702DC01CB0188879987AA87BB876885EA
:1025A00079858A859B8520E030E040E85FE30E94E2
:1025B0004D0488232CF481E090E09F838E833FC0FC
:1025C000688579858A859B8520E03FEF4FE757E452
:1025D0000E94ED0318164CF56C857D858E859F85D0
:1025E00020E030E040E251E40E941702DC01CB0120
:1025F000BC01CD010E944100DC01CB019F838E8391
:102600000FC088EC90E09D838C838C819D81019725
:10261000F1F79D838C838E819F8101979F838E83A9
:102620008E819F81009769F724C0688579858A85A6
:102630009B850E944100DC01CB019F838E838E81AC
:102640009F819B838A838A819B810197F1F79B837A
:102650008A830FC069897A898B899C890E9441008D
:10266000DC01CB01888B8889898389818A95F1F780
:10267000898368960FB6F894DEBF0FBECDBFCF91A9
:10268000DF910895DF93CF93CDB7DEB768970FB68C
:10269000F894DEBF0FBECDBF8CE00E94D10A80E06F
:1026A00090E0A8E4B2E48D8B9E8BAF8BB88F6D89E0
:1026B0007E898F89988D2BEA3AEA4AE250E40E949B
:1026C0001702DC01CB01898B9A8BAB8BBC8B6989A0
:1026D0007A898B899C8920E030E040E85FE30E94A2
:1026E0004D0488231CF481E0888B91C069897A8924
:1026F0008B899C8920E030E04FE753E40E94ED0392
:1027000018160CF07BC06D897E898F89988D20E02A
:1027100030E04AE754E40E941103DC01CB018C87CE
:102720009D87AE87BF876C857D858E859F8520E0E0
:1027300030E04AEF54E40E941702DC01CB018887A5
:102740009987AA87BB87688579858A859B8520E0DC
:1027500030E040E85FE30E944D0488232CF481E0E0
:1027600090E09F838E833FC0688579858A859B85AD
:1027700020E03FEF4FE757E40E94ED0318164CF5B9
:102780006C857D858E859F8520E030E040E251E4B8
:102790000E941702DC01CB01BC01CD010E94410067
:1027A000DC01CB019F838E830FC088EC90E09D837A
:1027B0008C838C819D810197F1F79D838C838E8121
:1027C0009F8101979F838E838E819F81009769F7F8
:1027D00024C0688579858A859B850E944100DC013B
:1027E000CB019F838E838E819F819B838A838A8185
:1027F0009B810197F1F79B838A830FC069897A894E
:102800008B899C890E944100DC01CB01888B8889DF
:10281000898389818A95F1F7898368960FB6F89440
:10282000DEBF0FBECDBFCF91DF910895DF93CF9371
:10283000CDB7DEB768970FB6F894DEBF0FBECDBF39
:102840008CE00E94D10A80E090E0A8E4B2E48D8B95
:102850009E8BAF8BB88F6D897E898F89988D2BEA7F
:102860003AEA4AE250E40E941702DC01CB01898B6C
:102870009A8BAB8BBC8B69897A898B899C8920E088
:1028800030E040E85FE30E944D0488231CF481E0BF
:10289000888B91C069897A898B899C8920E030E096
:1028A0004FE753E40E94ED0318160CF07BC06D89CE
:1028B0007E898F89988D20E030E04AE754E40E94B9
:1028C0001103DC01CB018C879D87AE87BF876C85A8
:1028D0007D858E859F8520E030E04AEF54E40E949C
:1028E0001702DC01CB0188879987AA87BB87688597
:1028F00079858A859B8520E030E040E85FE30E948F
:102900004D0488232CF481E090E09F838E833FC0A8
:10291000688579858A859B8520E03FEF4FE757E4FE
:102920000E94ED0318164CF56C857D858E859F857C
:1029300020E030E040E251E40E941702DC01CB01CC
:10294000BC01CD010E944100DC01CB019F838E833D
:102950000FC088EC90E09D838C838C819D810197D2
:10296000F1F79D838C838E819F8101979F838E8356
:102970008E819F81009769F724C0688579858A8553
:102980009B850E944100DC01CB019F838E838E8159
:102990009F819B838A838A819B810197F1F79B8327
:1029A0008A830FC069897A898B899C890E9441003A
:1029B000DC01CB01888B8889898389818A95F1F72D
:1029C000898368960FB6F894DEBF0FBECDBFCF9156
:1029D000DF910895DF93CF93CDB7DEB768970FB639
:1029E000F894DEBF0FBECDBF88E00E94D10A80E020
:1029F00090E0A8E4B2E48D8B9E8BAF8BB88F6D898D
:102A00007E898F89988D2BEA3AEA4AE250E40E9447
:102A10001702DC01CB01898B9A8BAB8BBC8B69894C
:102A20007A898B899C8920E030E040E85FE30E944E
:102A30004D0488231CF481E0888B91C069897A89D0
:102A40008B899C8920E030E04FE753E40E94ED033E
:102A500018160CF07BC06D897E898F89988D20E0D7
:102A600030E04AE754E40E941103DC01CB018C877B
:102A70009D87AE87BF876C857D858E859F8520E08D
:102A800030E04AEF54E40E941702DC01CB01888752
:102A90009987AA87BB87688579858A859B8520E089
:102AA00030E040E85FE30E944D0488232CF481E08D
:102AB00090E09F838E833FC0688579858A859B855A
:102AC00020E03FEF4FE757E40E94ED0318164CF566
:102AD0006C857D858E859F8520E030E040E251E465
:102AE0000E941702DC01CB01BC01CD010E94410014
:102AF000DC01CB019F838E830FC088EC90E09D8327
:102B00008C838C819D810197F1F79D838C838E81CD
:102B10009F8101979F838E838E819F81009769F7A4
:102B200024C0688579858A859B850E944100DC01E7
:102B3000CB019F838E838E819F819B838A838A8131
:102B40009B810197F1F79B838A830FC069897A89FA
:102B50008B899C890E944100DC01CB01888B88898C
:102B6000898389818A95F1F7898368960FB6F894ED
:102B7000DEBF0FBECDBFCF91DF910895DF93CF931E
:102B8000CDB7DEB768970FB6F894DEBF0FBECDBFE6
:102B900084E10E94D10A80E090E0A8E4B2E48D8B49
:102BA0009E8BAF8BB88F6D897E898F89988D2BEA2C
:102BB0003AEA4AE250E40E941702DC01CB01898B19
:102BC0009A8BAB8BBC8B69897A898B899C8920E035
:102BD00030E040E85FE30E944D0488231CF481E06C
:102BE000888B91C069897A898B899C8920E030E043
:102BF0004FE753E40E94ED0318160CF07BC06D897B
:102C00007E898F89988D20E030E04AE754E40E9465
:102C10001103DC01CB018C879D87AE87BF876C8554
:102C20007D858E859F8520E030E04AEF54E40E9448
:102C30001702DC01CB0188879987AA87BB87688543
:102C400079858A859B8520E030E040E85FE30E943B
:102C50004D0488232CF481E090E09F838E833FC055
:102C6000688579858A859B8520E03FEF4FE757E4AB
:102C70000E94ED0318164CF56C857D858E859F8529
:102C800020E030E040E251E40E941702DC01CB0179
:102C9000BC01CD010E944100DC01CB019F838E83EA
:102CA0000FC088EC90E09D838C838C819D8101977F
:102CB000F1F79D838C838E819F8101979F838E8303
:102CC0008E819F81009769F724C0688579858A8500
:102CD0009B850E944100DC01CB019F838E838E8106
:102CE0009F819B838A838A819B810197F1F79B83D4
:102CF0008A830FC069897A898B899C890E944100E7
:102D0000DC01CB01888B8889898389818A95F1F7D9
:102D1000898368960FB6F894DEBF0FBECDBFCF9102
:102D2000DF910895DF93CF93CDB7DEB768970FB6E5
:102D3000F894DEBF0FBECDBF80E10E94D10A80E0D3
:102D400090E0A8E4B2E48D8B9E8BAF8BB88F6D8939
:102D50007E898F89988D2BEA3AEA4AE250E40E94F4
:102D60001702DC01CB01898B9A8BAB8BBC8B6989F9
:102D70007A898B899C8920E030E040E85FE30E94FB
:102D80004D0488231CF481E0888B91C069897A897D
:102D90008B899C8920E030E04FE753E40E94ED03EB
:102DA00018160CF07BC06D897E898F89988D20E084
:102DB00030E04AE754E40E941103DC01CB018C8728
:102DC0009D87AE87BF876C857D858E859F8520E03A
:102DD00030E04AEF54E40E941702DC01CB018887FF
:102DE0009987AA87BB87688579858A859B8520E036
:102DF00030E040E85FE30E944D0488232CF481E03A
:102E000090E09F838E833FC0688579858A859B8506
:102E100020E03FEF4FE757E40E94ED0318164CF512
:102E20006C857D858E859F8520E030E040E251E411
:102E30000E941702DC01CB01BC01CD010E944100C0
:102E4000DC01CB019F838E830FC088EC90E09D83D3
:102E50008C838C819D810197F1F79D838C838E817A
:102E60009F8101979F838E838E819F81009769F751
:102E700024C0688579858A859B850E944100DC0194
:102E8000CB019F838E838E819F819B838A838A81DE
:102E90009B810197F1F79B838A830FC069897A89A7
:102EA0008B899C890E944100DC01CB01888B888939
:102EB000898389818A95F1F7898368960FB6F8949A
:102EC000DEBF0FBECDBFCF91DF910895DF93CF93CB
:102ED000CDB7DEB768970FB6F894DEBF0FBECDBF93
:102EE00088E10E94D10A80E090E0A8E4B2E48D8BF2
:102EF0009E8BAF8BB88F6D897E898F89988D2BEAD9
:102F00003AEA4AE250E40E941702DC01CB01898BC5
:102F10009A8BAB8BBC8B69897A898B899C8920E0E1
:102F200030E040E85FE30E944D0488231CF481E018
:102F3000888B91C069897A898B899C8920E030E0EF
:102F40004FE753E40E94ED0318160CF07BC06D8927
:102F50007E898F89988D20E030E04AE754E40E9412
:102F60001103DC01CB018C879D87AE87BF876C8501
:102F70007D858E859F8520E030E04AEF54E40E94F5
:102F80001702DC01CB0188879987AA87BB876885F0
:102F900079858A859B8520E030E040E85FE30E94E8
:102FA0004D0488232CF481E090E09F838E833FC002
:102FB000688579858A859B8520E03FEF4FE757E458
:102FC0000E94ED0318164CF56C857D858E859F85D6
:102FD00020E030E040E251E40E941702DC01CB0126
:102FE000BC01CD010E944100DC01CB019F838E8397
:102FF0000FC088EC90E09D838C838C819D8101972C
:10300000F1F79D838C838E819F8101979F838E83AF
:103010008E819F81009769F724C0688579858A85AC
:103020009B850E944100DC01CB019F838E838E81B2
:103030009F819B838A838A819B810197F1F79B8380
:103040008A830FC069897A898B899C890E94410093
:10305000DC01CB01888B8889898389818A95F1F786
:10306000898368960FB6F894DEBF0FBECDBFCF91AF
:10307000DF910895DF93CF93CDB7DEB768970FB692
:10308000F894DEBF0FBECDBF8CE10E94D10A80E074
:1030900090E0A8E4B2E48D8B9E8BAF8BB88F6D89E6
:1030A0007E898F89988D2BEA3AEA4AE250E40E94A1
:1030B0001702DC01CB01898B9A8BAB8BBC8B6989A6
:1030C0007A898B899C8920E030E040E85FE30E94A8
:1030D0004D0488231CF481E0888B91C069897A892A
:1030E0008B899C8920E030E04FE753E40E94ED0398
:1030F00018160CF07BC06D897E898F89988D20E031
:1031000030E04AE754E40E941103DC01CB018C87D4
:103110009D87AE87BF876C857D858E859F8520E0E6
:1031200030E04AEF54E40E941702DC01CB018887AB
:103130009987AA87BB87688579858A859B8520E0E2
:1031400030E040E85FE30E944D0488232CF481E0E6
:1031500090E09F838E833FC0688579858A859B85B3
:1031600020E03FEF4FE757E40E94ED0318164CF5BF
:103170006C857D858E859F8520E030E040E251E4BE
:103180000E941702DC01CB01BC01CD010E9441006D
:10319000DC01CB019F838E830FC088EC90E09D8380
:1031A0008C838C819D810197F1F79D838C838E8127
:1031B0009F8101979F838E838E819F81009769F7FE
:1031C00024C0688579858A859B850E944100DC0141
:1031D000CB019F838E838E819F819B838A838A818B
:1031E0009B810197F1F79B838A830FC069897A8954
:1031F0008B899C890E944100DC01CB01888B8889E6
:10320000898389818A95F1F7898368960FB6F89446
:10321000DEBF0FBECDBFCF91DF910895DF93CF9377
:103220000F92CDB7DEB7898389810E94F10A0F9092
:10323000CF91DF910895DF93CF93CDB7DEB7649739
:103240000FB6F894DEBF0FBECDBF9C8B8B8B1A825E
:103250008B899C89992344F58B899C8990958195CC
:103260009F4F9C8B8B8B8DE20E940E191DC08A8113
:10327000E82FF0E08B899C892AE030E0B9010E94B8
:103280006729282FCE010396E80FF91F20838A8132
:103290008F5F8A838B899C892AE030E0B9010E9484
:1032A0006729CB019C8B8B8B8B899C890097F9F6C6
:1032B0008A81882321F480E30E940E1918C08A8134
:1032C000898312C08981882F90E09C012150304071
:1032D000CE010396FC01E20FF31F8081805D0E9406
:1032E0000E198981815089838981882359F76496D1
:1032F0000FB6F894DEBF0FBECDBFCF91DF9108951A
:10330000DF93CF9300D000D0CDB7DEB79B838A8305
:103310006C8319828C81882F90E0880F991F880F09
:10332000991F880F991F8C838C81805C0E94D10A21
:1033300019820EC08981282F30E08A819B81FC018F
:10334000E20FF31F80810E94F10A89818F5F8983D8
:103350008981873078F380E80E94D10A0F900F901E
:103360000F900F90CF91DF910895DF93CF930F923D
:10337000CDB7DEB7898389810E94F10A0F90CF9182
:10338000DF910895DF93CF93CDB7DEB781E00E9440
:10339000D10ACF91DF910895DF93CF93CDB7DEB7F8
:1033A00027970FB6F894DEBF0FBECDBF6C837D8329
:1033B0008E839F836C817D818E819F810E944100DD
:1033C000DC01CB019B838A838A819B81CC01A0E0B5
:1033D000B0E0BC01CD010E945F059B01AC016C8196
:1033E0007D818E819F810E94B901DC01CB01BC01EE
:1033F000CD0120E030E048EC52E40E941702DC01ED
:10340000CB01BC01CD010E944100DC01CB018983CD
:103410008A819B810E941B198EE20E940E1989816C
:10342000882F90E00E941B1927960FB6F894DEBFF4
:103430000FBECDBFCF91DF910895DF93CF93CDB76E
:10344000DEB70E94110B0E943E22CF91DF910895BA
:10345000DF93CF93CDB7DEB760970FB6F894DEBF9A
:103460000FBECDBF9B838A837D836C835F834E8336
:103470002887EC81FD811082EE81FF811082EA8134
:10348000FB8180819181A281B381BC01CD0120E0CB
:1034900030E048E252E40E94BD03882381F0EA81D3
:1034A000FB8180819181A281B381BC01CD0120E0AB
:1034B00030E04CE352E40E94BD03882329F4EC8100
:1034C000FD8181E08083EEC18885882F90E09C019A
:1034D000220F331F220F331F8A819B81FC01E20FD1
:1034E000F31F80819181A281B381BC01CD0120E0D5
:1034F00030E048E252E40E94BD03882309F451C041
:103500008885882F90E09C01220F331F220F331FE4
:103510008A819B81FC01E20FF31F80819181A2814E
:10352000B381BC01CD0120E030E04CE352E40E94C5
:10353000BD038823B1F18885882F90E09C01220F7C
:10354000331F220F331F8A819B81FC01E20FF31F7F
:1035500080819181A281B381BC01CD0120E030E066
:103560004CE252E40E94BD038823D9F08885882F5D
:1035700090E09C01220F331F220F331F8A819B8111
:10358000FC01E20FF31F80819181A281B381BC0114
:10359000CD0120E030E044E352E40E94BD038823E3
:1035A00029F4EC81FD8181E080837CC181E0898305
:1035B0006EC18981882F90E09C01220F331F220F5A
:1035C000331F8A819B81FC01E20FF31F808191816F
:1035D000A281B381188ABC01CD0120E030E04CE229
:1035E00052E40E94BD03882311F481E0888B81E0BE
:1035F00098898927882349F58981882F90E0019649
:103600009C01220F331F220F331F8A819B81FC01F3
:10361000E20FF31F80819181A281B3811F86BC01DB
:10362000CD0120E030E048E252E40E94BD0388234F
:1036300011F481E08F8781E09F858927882329F411
:10364000EC81FD8181E080832DC18981882F90E00C
:103650009C01220F331F220F331F8A819B81FC01A3
:10366000E20FF31F80819181A281B3811E86BC018C
:10367000CD0120E030E044E352E40E94BD03882302
:1036800011F481E08E8781E09E858927882349F5A2
:103690008981882F90E001969C01220F331F220F11
:1036A000331F8A819B81FC01E20FF31F808191818E
:1036B000A281B3811D86BC01CD0120E030E048E24B
:1036C00052E40E94BD03882311F481E08D8781E0DC
:1036D0009D858927882329F4EC81FD8181E0808301
:1036E000E1C08981882F90E09C01220F331F220FB7
:1036F000331F8A819B81FC01E20FF31F808191813E
:10370000A281B3811C86BC01CD0120E030E044E3FE
:1037100052E40E94BD03882311F481E08C8781E08C
:103720009C858927882349F58981882F90E0019617
:103730009C01220F331F220F331F8A819B81FC01C2
:10374000E20FF31F80819181A281B3811B86BC01AE
:10375000CD0120E030E04CE352E40E94BD03882319
:1037600011F481E08B8781E09B858927882329F4E8
:10377000EC81FD8181E0808395C08981882F90E074
:103780009C01220F331F220F331F8A819B81FC0172
:10379000E20FF31F80819181A281B3811A86BC015F
:1037A000CD0120E030E044E352E40E94BD038823D1
:1037B00011F481E08A8781E09A858927882349F579
:1037C0008981882F90E001969C01220F331F220FE0
:1037D000331F8A819B81FC01E20FF31F808191815D
:1037E000A281B3811986BC01CD0120E030E048E21E
:1037F00052E40E94BD03882311F481E0898781E0AF
:1038000099858927882329F4EC81FD8181E08083D3
:1038100049C08981882F90E09C01220F331F220F1D
:10382000331F8A819B81FC01E20FF31F808191810C
:10383000A281B381BC01CD0120E030E04CE352E431
:103840000E94BD03882301F58981882F90E00196AD
:103850009C01220F331F220F331F8A819B81FC01A1
:10386000E20FF31F80819181A281B381BC01CD0160
:1038700020E030E040E050E00E94BD03882321F4C6
:10388000EE81FF8181E0808389818F5F89838981D7
:10389000282F30E08885882F90E001972817390776
:1038A0000CF487CE60960FB6F894DEBF0FBECDBF86
:1038B000CF91DF910895EF92FF920F931F93DF93C3
:1038C000CF93CDB7DEB72D970FB6F894DEBF0FBEFE
:1038D000CDBF69837A838B839C834D830E831F8343
:1038E00028873987FB86EA868D81282F30E03D873F
:1038F0002C878C859D858B329105B1F02C853D857B
:103900002C32310534F48C859D858A32910591F1F4
:1039100056C02C853D852D323105C9F08C859D859D
:103920008F329105D1F14BC069817A818B819C8165
:103930002E813F81488559850E94EA01DC01CB0137
:10394000EA85FB8580839183A283B38338C0698134
:103950007A818B819C812E813F81488559850E9487
:10396000B901DC01CB01EA85FB8580839183A283C9
:10397000B38325C069817A818B819C812E813F81AF
:10398000488559850E941702DC01CB01EA85FB8539
:1039900080839183A283B38312C069817A818B81F2
:1039A0009C812E813F81488559850E941103DC014D
:1039B000CB01EA85FB8580839183A283B3832D9617
:1039C0000FB6F894DEBF0FBECDBFCF91DF911F9130
:1039D0000F91FF90EF900895DF93CF9300D000D028
:1039E000CDB7DEB78A838A81282F30E03C832B83D2
:1039F0008B819C818B329105B1F02B813C812C32E3
:103A0000310534F48B819C818A32910579F011C0A3
:103A10002B813C812D32310531F08B819C818F329D
:103A2000910521F006C081E0898304C082E089838A
:103A300001C0198289810F900F900F900F90CF9144
:103A4000DF910895DF93CF93CDB7DEB72A970FB6F6
:103A5000F894DEBF0FBECDBF8A836B834C8319827F
:103A60008B81883018F081E0898303C28C8181309A
:103A700009F073C08A81282F30E03A872987898529
:103A80009A858230910551F129853A852330310597
:103A900034F489859A858130910561F05BC0298570
:103AA0003A852330310571F189859A8584309105F5
:103AB000E9F150C0AAE3B0E0EAE3F0E08081482FEA
:103AC0008B81282F30E081E090E0022E02C0880F29
:103AD000991F0A94E2F7842B8C93CBC1A7E3B0E043
:103AE000E7E3F0E08081482F8B81282F30E081E0F0
:103AF00090E0022E02C0880F991F0A94E2F7842BEF
:103B00008C93B7C1A4E3B0E0E4E3F0E08081482FF8
:103B10008B81282F30E081E090E0022E02C0880FD8
:103B2000991F0A94E2F7842B8C93A3C1A1E3B0E020
:103B3000E1E3F0E08081482F8B81282F30E081E0A5
:103B400090E0022E02C0880F991F0A94E2F7842B9E
:103B50008C938FC181E089838CC18C81823009F084
:103B6000C3C08A81282F30E038872F838F819885C2
:103B70008230910509F440C02F813885233031050A
:103B800034F48F8198858130910571F072C12F8155
:103B900038852330310509F457C08F8198858430EA
:103BA000910509F479C065C1AAE3B0E0EAE3F0E069
:103BB0008081482F8B81282F30E081E090E002C087
:103BC000880F991F2A95E2F7809584238C93ABE3A5
:103BD000B0E0EBE3F0E08081482F8B81282F30E0CC
:103BE00081E090E0022E02C0880F991F0A94E2F74C
:103BF000809584238C933DC1A7E3B0E0E7E3F0E038
:103C00008081482F8B81282F30E081E090E002C036
:103C1000880F991F2A95E2F7809584238C93A8E357
:103C2000B0E0E8E3F0E08081482F8B81282F30E07E
:103C300081E090E0022E02C0880F991F0A94E2F7FB
:103C4000809584238C9315C1A4E3B0E0E4E3F0E015
:103C50008081482F8B81282F30E081E090E002C0E6
:103C6000880F991F2A95E2F7809584238C93A5E30A
:103C7000B0E0E5E3F0E08081482F8B81282F30E031
:103C800081E090E0022E02C0880F991F0A94E2F7AB
:103C9000809584238C93EDC0A1E3B0E0E1E3F0E0F4
:103CA0008081482F8B81282F30E081E090E002C096
:103CB000880F991F2A95E2F7809584238C93A2E3BD
:103CC000B0E0E2E3F0E08081482F8B81282F30E0E4
:103CD00081E090E0022E02C0880F991F0A94E2F75B
:103CE000809584238C93C5C08C81833009F0BFC03C
:103CF0008A81282F30E03E832D838D819E81823002
:103D0000910509F43FC02D813E812330310534F403
:103D10008D819E818130910571F0ABC02D813E81F6
:103D20002330310509F455C08D819E818430910581
:103D300009F476C09EC0AAE3B0E0EAE3F0E0808137
:103D4000482F8B81282F30E081E090E002C0880F5F
:103D5000991F2A95E2F7809584238C93ABE3B0E01A
:103D6000EBE3F0E08081482F8B81282F30E081E069
:103D700090E0022E02C0880F991F0A94E2F7842B6C
:103D80008C9377C0A7E3B0E0E7E3F0E08081482FB1
:103D90008B81282F30E081E090E002C0880F991FCE
:103DA0002A95E2F7809584238C93A8E3B0E0E8E3BA
:103DB000F0E08081482F8B81282F30E081E090E077
:103DC000022E02C0880F991F0A94E2F7842B8C936D
:103DD00050C0A4E3B0E0E4E3F0E08081482F8B81A1
:103DE000282F30E081E090E002C0880F991F2A95CB
:103DF000E2F7809584238C93A5E3B0E0E5E3F0E05F
:103E00008081482F8B81282F30E081E090E0022EC6
:103E100002C0880F991F0A94E2F7842B8C9329C063
:103E2000A1E3B0E0E1E3F0E08081482F8B81282F0F
:103E300030E081E090E002C0880F991F2A95E2F7F8
:103E4000809584238C93A2E3B0E0E2E3F0E08081EC
:103E5000482F8B81282F30E081E090E0022E02C0B5
:103E6000880F991F0A94E2F7842B8C9302C081E09B
:103E7000898389812A960FB6F894DEBF0FBECDBF25
:103E8000CF91DF910895DF93CF93CDB7DEB727971A
:103E90000FB6F894DEBF0FBECDBF8A836B83198245
:103EA0008B818F3FB9F58A81282F30E03F832E83A5
:103EB0008E819F8182309105D9F02E813F81233000
:103EC000310534F48E819F818130910561F01FC0EE
:103ED0002E813F812330310581F08E819F81843096
:103EE000910581F014C0EAE3F0E08FEF80834AC0CF
:103EF000E7E3F0E08FEF808345C0E4E3F0E08FEF8D
:103F0000808340C0E1E3F0E08FEF80833BC081E03D
:103F1000898338C08B81882399F58A81282F30E0E6
:103F20003D832C838C819D8182309105D1F02C8141
:103F30003D812330310534F48C819D8181309105A0
:103F400061F01BC02C813D812330310571F08C81E3
:103F50009D818430910569F010C0EAE3F0E01082A1
:103F600011C0E7E3F0E010820DC0E4E3F0E010825E
:103F700009C0E1E3F0E0108205C081E0898302C05E
:103F800081E08983898127960FB6F894DEBF0FBE42
:103F9000CDBFCF91DF910895DF93CF93CDB7DEB73B
:103FA00028970FB6F894DEBF0FBECDBF8A836B8310
:103FB0004C8319828B81883018F081E08983F5C0A9
:103FC0008C81813009F073C08A81282F30E03887D6
:103FD0002F838F8198858230910551F12F8138850B
:103FE0002330310534F48F8198858130910561F05B
:103FF0005BC02F8138852330310571F18F81988521
:1040000084309105E9F150C0ABE3B0E0EBE3F0E0C0
:104010008081482F8B81282F30E081E090E0022EB4
:1040200002C0880F991F0A94E2F7842B8C93BDC0BD
:10403000A8E3B0E0E8E3F0E08081482F8B81282FEF
:1040400030E081E090E0022E02C0880F991F0A94B0
:10405000E2F7842B8C93A9C0A5E3B0E0E5E3F0E0A0
:104060008081482F8B81282F30E081E090E0022E64
:1040700002C0880F991F0A94E2F7842B8C9395C095
:10408000A2E3B0E0E2E3F0E08081482F8B81282FAB
:1040900030E081E090E0022E02C0880F991F0A9460
:1040A000E2F7842B8C9381C081E089837EC08C8170
:1040B000882309F078C08A81282F30E03E832D8341
:1040C0008D819E818230910561F12D813E81233069
:1040D000310534F48D819E818130910569F060C095
:1040E0002D813E812330310589F18D819E8184307F
:1040F000910509F440C054C0ABE3B0E0EBE3F0E05D
:104100008081482F8B81282F30E081E090E0022EC3
:1041100002C0880F991F0A94E2F7809584238C933C
:1041200044C0A8E3B0E0E8E3F0E08081482F8B8151
:10413000282F30E081E090E0022E02C0880F991F06
:104140000A94E2F7809584238C932FC0A5E3B0E016
:10415000E5E3F0E08081482F8B81282F30E081E07B
:1041600090E0022E02C0880F991F0A94E2F7809512
:1041700084238C931AC0A2E3B0E0E2E3F0E08081F4
:10418000482F8B81282F30E081E090E0022E02C082
:10419000880F991F0A94E2F7809584238C9305C0B9
:1041A00081E0898302C081E08983898128960FB6E6
:1041B000F894DEBF0FBECDBFCF91DF910895DF939E
:1041C000CF9300D000D00F92CDB7DEB78A836B8338
:1041D00019828A81282F30E03D832C838C819D8138
:1041E00082309105D9F02C813D812330310534F4A2
:1041F0008C819D818130910561F01FC02C813D81B2
:104200002330310581F08C819D818430910581F0CE
:1042100014C0EBE3F0E08B81808311C0E8E3F0E0B1
:104220008B8180830CC0E5E3F0E08B81808307C045
:10423000E2E3F0E08B81808302C081E089838981A1
:104240000F900F900F900F900F90CF91DF910895E6
:10425000DF93CF93CDB7DEB727970FB6F894DEBFC5
:104260000FBECDBF8A836B835D834C8319828B81A4
:10427000883018F081E08983A4C08A81282F30E03B
:104280003F832E834E815F8142305105C1F18E8183
:104290009F818330910534F42E813F812130310597
:1042A00071F08DC04E815F814330510509F447C0E4
:1042B0008E819F818430910509F461C080C0E9E35B
:1042C000F0E08081482F50E08B81282F30E081E0A2
:1042D00090E002C0880F991F2A95E2F79A012823DF
:1042E00039238B81882F90E0A90102C0559547950D
:1042F0008A95E2F7CA01EC81FD81808362C0E6E322
:10430000F0E08081482F50E08B81282F30E081E061
:1043100090E002C0880F991F2A95E2F79A0128239E
:1043200039238B81882F90E0A90102C055954795CC
:104330008A95E2F7CA01EC81FD81808342C0E3E304
:10434000F0E08081482F50E08B81282F30E081E021
:1043500090E002C0880F991F2A95E2F79A0128235E
:1043600039238B81882F90E0A90102C0559547958C
:104370008A95E2F7CA01EC81FD81808322C0E0E3E7
:10438000F0E08081482F50E08B81282F30E081E0E1
:1043900090E002C0880F991F2A95E2F79A0128231E
:1043A00039238B81882F90E0A90102C0559547954C
:1043B0008A95E2F7CA01EC81FD81808302C081E029
:1043C0008983898127960FB6F894DEBF0FBECDBFD3
:1043D000CF91DF910895DF93CF9300D000D000D02C
:1043E000CDB7DEB78A837C836B8319828A81282FBD
:1043F00030E03E832D838D819E8182309105E9F0EE
:104400002D813E812330310534F48D819E818130B0
:10441000910561F027C02D813E8123303105A1F047
:104420008D819E8184309105B1F01CC0E9E3F0E0FC
:104430008081EB81FC81808317C0E6E3F0E080811E
:10444000EB81FC81808310C0E3E3F0E08081EB81AD
:10445000FC81808309C0E0E3F0E08081EB81FC8196
:10446000808302C081E08983898126960FB6F89403
:10447000DEBF0FBECDBFCF91DF910895DF93CF9305
:10448000CDB7DEB781E064E043E00E94221D81E009
:1044900065E043E00E94221D81E066E043E00E9467
:1044A000221D81E067E043E00E94221D81E060E080
:1044B00041E00E94221D81E061E041E00E94221D56
:1044C00081E062E041E00E94221D81E063E041E082
:1044D0000E94221D81E060E041E00E94CC1F81E04B
:1044E00061E041E00E94CC1F81E062E041E00E9477
:1044F000CC1F81E063E041E00E94CC1FCF91DF91AF
:104500000895DF93CF93CDB7DEB76A970FB6F894CF
:10451000DEBF0FBECDBF9D8B8C8BEC89FD898FEFED
:104520008083CE0103969F8B8E8BE4EAF1E0F98FB6
:10453000E88FF0E1FA8FE88DF98D0080888D998DF4
:104540000196998F888FEE89FF8900828E899F89D5
:1045500001969F8B8E8B9A8D91509A8FEA8DEE23C8
:1045600051F71A82198281E08B8B1A825BC08A8193
:10457000882F90E0FC01E056FE4F908181E0692F8A
:1045800040E00E94CC1F19823BC08981882F90E0B7
:10459000FC01E456FE4F90819E012D5E3F4F81E06D
:1045A000692FA9010E9428218B89882331F58981EF
:1045B000282F30E08A81482F50E0220F331F220F2E
:1045C000331FCE010196820F931F840F951FFC01AC
:1045D00032968081EC89FD8980838981882F90E0E3
:1045E000FC01E456FE4F90819E012D5E3F4F81E01D
:1045F000692FA9010E94282106C089818F5F8983C4
:104600008981843010F28A81882F90E0FC01E05685
:10461000FE4F908181E0692F41E00E94CC1F8A818A
:104620008F5F8A838A81843008F4A1CF6A960FB69F
:10463000F894DEBF0FBECDBFCF91DF910895DF9319
:10464000CF9300D0CDB7DEB79A838983E981FA8111
:104650001082E981FA8111820F900F90CF91DF9142
:104660000895DF93CF9300D000D0CDB7DEB79A8303
:1046700089837C836B83E981FA818081282F30E0F4
:10468000EB81FC81408189819A81820F931FFC011B
:1046900032964083E981FA8180818F5FE981FA81D6
:1046A0008083E981FA8181818F5FE981FA81818349
:1046B0000F900F900F900F90CF91DF910895DF939F
:1046C000CF9300D000D0CDB7DEB79A8389837C83A7
:1046D0006B83E981FA8180818150E981FA8180834D
:1046E000E981FA818081282F30E089819A81820FC7
:1046F000931FFC0132968081EB81FC818083E981EC
:10470000FA8181818150E981FA8181830F900F9034
:104710000F900F90CF91DF910895DF93CF9300D04A
:10472000CDB7DEB79A838983E981FA818081882FAA
:1047300090E09C012150304089819A81820F931F23
:10474000FC01329680810F900F90CF91DF910895F8
:10475000DF93CF9300D000D0CDB7DEB79A838983A3
:104760007C836B83E981FA818181EB81FC81808389
:104770000F900F900F900F90CF91DF910895DF93DE
:10478000CF9300D0CDB7DEB79A838983E981FA81D0
:104790001082E981FA8111820F900F90CF91DF9101
:1047A0000895DF93CF9300D000D0CDB7DEB79A83C2
:1047B00089837C836B83E981FA818081882F90E0F3
:1047C000EB81FC81208131814281538169817A8131
:1047D000880F991F0196880F991FFB01E80FF91F99
:1047E0002083318342835383E981FA8180818F5F03
:1047F000E981FA818083E981FA8181818F5FE98192
:10480000FA8181830F900F900F900F90CF91DF91DD
:104810000895DF93CF9300D000D0CDB7DEB79A8351
:1048200089837C836B83E981FA8180818150E9816E
:10483000FA818083E981FA818081882F90E0298143
:104840003A81880F991F0196880F991FF901E80F87
:10485000F91F80819181A281B381EB81FC818083EA
:104860009183A283B383E981FA8181818150E981B7
:10487000FA8181830F900F900F900F90CF91DF916D
:104880000895DF93CF9300D000D0CDB7DEB79A83E1
:1048900089837C836B83E981FA818081882F90E012
:1048A0009C012150304089819A81820F931FFC0125
:1048B00032968081882F90E0A0E0B0E0BC01CD016D
:1048C0000E945F05DC01CB01EB81FC818083918339
:1048D000A283B3830F900F900F900F90CF91DF9131
:1048E0000895DF93CF9300D000D0CDB7DEB79A8381
:1048F00089837C836B83E981FA818181EB81FC81EF
:1049000080830F900F900F900F90CF91DF910895BB
:10491000EF92FF920F931F93DF93CF93CDB7DEB744
:10492000CC5AD0400FB6F894DEBF0FBECDBF0E9468
:104930001D1A80E4FE013896DF01982F1D929A958A
:10494000E9F780E092EFAFEFB6E488879987AA870E
:10495000BB871E82FE01E85BFF4F8FEF808380E004
:1049600090E0A0E0B0E08A839B83AC83BD83FE012E
:10497000E75BFF4F80E090E0A0E0B0E080839183B0
:10498000A283B383FE01E35BFF4F80E090E0A0E0F1
:10499000B0E080839183A283B383FE01EF5AFF4F7F
:1049A00010821982FE01EE5AFF4F80E090E0A0E0F5
:1049B000B0E080839183A283B383FE01EA5AFF4F64
:1049C0001082FE01E95AFF4F1082FE01E455FF4FAD
:1049D0001082CE01885A9F4F0E941F23CE01865914
:1049E0009F4F0E94BF23CE01885B9F4F0E94812270
:1049F000FE01E85BFF4F80818F3FA9F3FE01E85B7A
:104A0000FF4F80818F3F09F4D2C0FE01E85BFF4F6A
:104A100080818F3409F4CBC0FE01E85BFF4F8081B9
:104A20008B32C9F0FE01E85BFF4F80818D3299F037
:104A3000FE01E85BFF4F80818A3269F0FE01E85B8E
:104A4000FF4F80818F3239F0FE01E85BFF4F80819C
:104A50008D3309F065C08E81882F90E09C01220F74
:104A6000331F220F331FCE010196820F931FFC01CB
:104A700037968A819B81AC81BD8180839183A2839B
:104A8000B3838E818F5F8E8380E090E0A0E0B0E002
:104A90008A839B83AC83BD838E81082F10E0FE0147
:104AA000E85BFF4F8081882F90E0A0E0B0E0BC0180
:104AB000CD010E945F05AB01BC019801220F331F9D
:104AC000220F331FCE010196820F931FFC013796F0
:104AD00040835183628373838E818F5F8E83FE0157
:104AE000E85BFF4F80818D3309F04FC08E8182508B
:104AF0008E838E818F83EF81CE0108969E012A5A84
:104B00003F4FAE01495A5F4FB9012E2F0E94281A1C
:104B1000FE01EA5AFF4F8081882309F052C34DC03D
:104B2000FE01E85BFF4F8081803330F4FE01E85BDB
:104B3000FF4F80818A3348F5FE01E85BFF4F80819B
:104B4000882F90E0C097AA2797FDA095BA2FBC01A7
:104B5000CD010E94AD047B018C016A817B818C8137
:104B60009D8120E030E040E251E40E941702DC0128
:104B7000CB019C01AD01C801B7010E94EA01DC0133
:104B8000CB018A839B83AC83BD83FE01E85BFF4F2F
:104B900080810E940E1905C0CE01885B9F4F0E9444
:104BA0008122FE01E85BFF4F80818F3FA9F7CE0194
:104BB000885B9F4F0E94812216CFFE01E95AFF4F6A
:104BC0008081882309F0FDC288859985AA85BB85E7
:104BD000BC01CD0120E030E044E352E40E94BD037B
:104BE000882351F48C859D85AE85BF85B0588C8710
:104BF0009D87AE87BF8702C381E08983BBC089815F
:104C0000882F90E09C01220F331F220F331FCE010B
:104C10000196820F931FFC01379680819181A281BA
:104C2000B381BC01CD0120E030E048E252E40E94B3
:104C3000BD038823C9F18981882F90E09C01220F50
:104C4000331F220F331FCE010196820F931FFC01E9
:104C5000379680819181A281B381BC01CD0120E092
:104C600030E04CE352E40E94BD038823E9F08981DF
:104C7000882F90E09C01220F331F220F331FCE019B
:104C80000196820F931FFC01379680819181A2814A
:104C9000B381BC01CD0120E030E04CE252E40E943F
:104CA000BD03882309F063C08981882F90E00196B5
:104CB0009C01220F331F220F331FCE010196820F5A
:104CC000931FFC01379680819181A281B381BC0141
:104CD000CD0120E030E044E352E40E94BD0388238C
:104CE00009F045C08981882F90E08C010E5F1F4F2D
:104CF0008981882F90E002969C01220F331F220F9A
:104D0000331FCE010196820F931FFC0137968081DD
:104D10009181A281B381AC01BD0170589801220F2D
:104D2000331F220F331FCE010196820F931FFC0108
:104D3000379640835183628373838981882F90E003
:104D400001969C01220F331F220F331FCE010196C3
:104D5000820F931FFC01379680E092EFAFEFB6E42D
:104D600080839183A283B38389818D5F89838981C5
:104D70008F5F898399818E81981708F440CF1982BB
:104D8000AFC18981882F90E09C01220F331F220F31
:104D9000331FCE010196820F931FFC01379680814D
:104DA0009181A281B381BC01CD0120E030EF4FEFB2
:104DB00056E40E947D0418160CF48FC18981882F57
:104DC00090E09C01220F331F220F331FCE0101966A
:104DD000820F931FFC01379680819181A281B3815C
:104DE000BC01CD010E944100DC01CB018B3209F4F2
:104DF0004FC08981882F90E09C01220F331F220F22
:104E0000331FCE010196820F931FFC0137968081DC
:104E10009181A281B381BC01CD010E944100DC01DE
:104E2000CB018D32A9F18981882F90E09C01220F5E
:104E3000331F220F331FCE010196820F931FFC01F7
:104E4000379680819181A281B381BC01CD010E94FE
:104E50004100DC01CB018A32D9F08981882F90E0B2
:104E60009C01220F331F220F331FCE010196820FA8
:104E7000931FFC01379680819181A281B381BC018F
:104E8000CD010E944100DC01CB018F3209F013C13A
:104E9000CE01885A9F4F9E0124553F4FB9010E9471
:104EA000A823FE01E455FF4F8081882319F58981ED
:104EB000882F90E09C01220F331F220F331FCE0159
:104EC0000196820F931FFC01379680819181A28108
:104ED000B381BC01CD010E944100DC01CB018F8375
:104EE000CE01885A9F4F9E01295F3F4FB9010E9412
:104EF0003123F3C08981882F90E09C01220F331F5A
:104F0000220F331FCE010196820F931FFC013796AB
:104F100080819181A281B381BC01CD010E944100B9
:104F2000DC01CB010E94EC1C182FCE01885A9F4F48
:104F30000E948D230E94EC1C811718F58981882F0F
:104F400090E09C01220F331F220F331FCE010196E8
:104F5000820F931FFC01379680819181A281B381DA
:104F6000BC01CD010E944100DC01CB018F83CE0149
:104F7000885A9F4F9E01295F3F4FB9010E943123FC
:104F8000ACC08981882F90E09C01220F331F220F33
:104F9000331FCE010196820F931FFC01379680814B
:104FA0009181A281B381BC01CD010E944100DC014D
:104FB000CB010E94EC1C182FCE01885A9F4F0E94F3
:104FC0008D230E94EC1C811708F487C0CE018659FE
:104FD0009F4F9E01235B3F4FB9010E940924CE01E0
:104FE00086599F4F9E01275B3F4FB9010E940924BC
:104FF000CE01885A9F4F9E012F5A3F4FB9010E9400
:105000005F23FE01E75BFF4F80819181A281B38125
:10501000FE01EF5AFF4F4081FE01E35BFF4F00812D
:10502000118122813381FE01EE5AFF4FBC01CD0177
:105030007F010E945B1C80E061E00E94240FCE0192
:1050400086599F4F9E012E5A3F4FB9010E94D1238E
:10505000CE0186599F4F9E0124553F4FB9010E94B2
:105060007124FE01E455FF4F8081813009F0AECFFD
:105070008981882F90E09C01220F331F220F331F5C
:10508000CE010196820F931FFC013796808191819A
:10509000A281B381BC01CD010E944100DC01CB01A2
:1050A0008F83CE01885A9F4F9E01295F3F4FB901E0
:1050B0000E94312312C08981882F90E0880F991FA8
:1050C000880F991F9E01285F3F4F280F391FCE017F
:1050D00086599F4FB9010E94D12389818F5F8983AF
:1050E00099818E81891708F04CCECE01885A9F4F46
:1050F0009E0124553F4FB9010E94A82347C0CE010D
:1051000086599F4F9E01235B3F4FB9010E9409249E
:10511000CE0186599F4F9E01275B3F4FB9010E94E8
:105120000924CE01885A9F4F9E012F5A3F4FB90143
:105130000E945F23FE01E75BFF4F80819181A28186
:10514000B381FE01EF5AFF4F4081FE01E35BFF4F49
:105150000081118122813381FE01EE5AFF4FBC0193
:10516000CD017F010E945B1CCE0186599F4F9E019D
:105170002E5A3F4FB9010E94D123CE01885A9F4F2A
:105180009E0124553F4FB9010E94A823FE01E4551A
:10519000FF4F8081882309F0B2CF80E061E00E9458
:1051A000240F80E690E00E94FB0EFE01EE5AFF4FB6
:1051B00080819181A281B381BC01CD010E94CC1973
:1051C0001DC0FE01EA5AFF4F8081813049F480E022
:1051D00061E00E94240F8AE690E00E94FB0E0EC060
:1051E000FE01E95AFF4F8081813041F480E061E0A7
:1051F0000E94240F87E790E00E94FB0ECE01885B9F
:105200009F4F0E948122FE01E85BFF4F80818F3417
:10521000A9F71E82FE01E85BFF4F8FEF808380E0DD
:1052200090E0A0E0B0E08A839B83AC83BD83FE0165
:10523000E75BFF4F80E090E0A0E0B0E080839183E7
:10524000A283B383FE01E35BFF4F80E090E0A0E028
:10525000B0E080839183A283B383FE01EF5AFF4FB6
:105260001082FE01EE5AFF4F80E090E0A0E0B0E037
:1052700080839183A283B383FE01EA5AFF4F108299
:10528000FE01E95AFF4F1082CE01885A9F4F0E94BB
:105290001F23CE0186599F4F0E94BF23FE01E45574
:1052A000FF4F108280E060E00E94240F82E890E0CF
:1052B0000E94FB0E80E061E00E94240F82E890E0F3
:1052C0000E94FB0E80E060E00E94240F8CCB97FBD5
:1052D000092E07260AD077FD04D00CD006D0002076
:1052E0001AF4709561957F4F0895F6F79095819522
:1052F0009F4F0895AA1BBB1B51E107C0AA1FBB1FEC
:10530000A617B70710F0A61BB70B881F991F5A9551
:10531000A9F780959095BC01CD0108952F923F92F9
:105320004F925F926F927F928F929F92AF92BF92B5
:10533000CF92DF92EF92FF920F931F93CF93DF9361
:10534000CDB7DEB7CA1BDB0B0FB6F894DEBF0FBEBE
:10535000CDBF09942A88398848885F846E847D840B
:105360008C849B84AA84B984C884DF80EE80FD800D
:105370000C811B81AA81B981CE0FD11D0FB6F89483
:0E538000DEBF0FBECDBFED010895F894FFCF44
:10538E00526573756C74203D200053594E5441582C
:10539E00204552524F52004D415448204552524FD3
:1053AE00520009090909090909090909090909091F
:1053BE0009090900000000000000000000010202BF
:1053CE00030303030404040404040404050505058F
:1053DE00050505050505050505050505060606066B
:1053EE00060606060606060606060606060606064F
:1053FE00060606060606060606060606070707073B
:10540E00070707070707070707070707070707071E
:10541E00070707070707070707070707070707070E
:10542E0007070707070707070707070707070707FE
:10543E0007070707070707070707070708080808EA
:10544E0008080808080808080808080808080808CE
:10545E0008080808080808080808080808080808BE
:10546E0008080808080808080808080808080808AE
:10547E00080808080808080808080808080808089E
:10548E00080808080808080808080808080808088E
:10549E00080808080808080808080808080808087E
:1054AE00080808080808080808080808080808086E
:1054BE000808080808080808080808080405060768
:1054CE00000102033738392F3435362A3132332D65
:0454DE004F303D2BE3
:00000001FF
